:020000040800F2
:10000000002800204D0B0008D50A0008DD0A000872
:10001000E50A0008ED0A0008F50A000800000000E3
:10002000000000000000000000000000FD0A0008C1
:10003000090B000800000000150B0008210B000848
:10004000950B0008950B0008950B0008950B000810
:10005000950B0008950B0008950B0008950B000800
:10006000950B0008950B0008950B0008950B0008F0
:10007000950B0008950B0008950B0008950B0008E0
:10008000950B0008950B0008950B0008950B0008D0
:10009000950B0008950B0008950B0008950B0008C0
:1000A000950B0008950B0008950B0008950B0008B0
:1000B0002D0B0008950B000800000000950B0008B0
:1000C000950B00080000000000000000950B0008E0
:1000D00000000000950B0008950B000800000000D0
:1000E000950B0008950B0008950B00080000000018
:1000F0000000000000000000000000000000000000
:0C01000000000000000000005FF808F1A3
:10010C0010B5054C237833B9044B13B10448AFF345
:10011C0000800123237010BD20000020000000008F
:10012C00A021000808B5034B1BB103490348AFF3EA
:10013C00008008BD0000000024000020A021000861
:10014C0080B483B000AF6246C7F804C05368194945
:10015C0081FB03018910DB17CB1A17490B60506820
:10016C00144B83FB00139910C317C91A0B469B0041
:10017C000B445B00C11A104B596013680D4981FB8D
:10018C0003018910DB17CB1A0B498B601168094BE3
:10019C0083FB01239A10CB17D21A13469B001344EE
:1001AC005B00CA1A044BDA6000BF0C37BD4680BC3A
:1001BC00704700BF676666660000002080B584B09B
:1001CC0000AF07F11803BB6000F0E0FC00F09EFAF2
:1001DC0000F024FB00F0D6FA2E4801F023FC0F238C
:1001EC007B6008233B603223FB604FF47A7000F095
:1001FC0085FBFA2000F09CFB4FF47A7000F0B2FB08
:10020C00254B1B68012B1BD14FF47A7000F076FB49
:10021C00FB680133FB60FB683B2B04DD0023FB60B8
:10022C003B6801333B603B683B2B04DD00233B60A8
:10023C007B6801337B607B68172B01DD00237B60BF
:10024C003B469C46FFF77CFF144B1B68012B14D1DB
:10025C00FA2000F06DFB124B1B683A469446184688
:10026C0000F00AFA0E4B1B680133042293FBF2F1E7
:10027C0001FB02F29B1A0A4A13600A4B1B68012B02
:10028C00BED14FF47A7000F06DFB1021064800F0DF
:10029C0081FFB5E73C00002094000020980000206E
:1002AC00840000209C0000200008014080B582B032
:1002BC0000AF7860C7F800C07B68002BC0F2888163
:1002CC007B68092B00F384817B68092B00F2828107
:1002DC0001A252F823F000BF0D03000855030008DB
:1002EC009D030008E50300082D04000875040008B0
:1002FC00BD040008050500084D050008950500081B
:10030C0000220121B54800F02DFF00220221B34844
:10031C0000F028FF00220821B04800F023FF002243
:10032C001021AE4800F01EFF00222021AB4800F047
:10033C0019FF00224021A94800F014FF012280215E
:10034C00A64800F00FFF46E101220121A34800F06E
:10035C0009FF00220221A14800F004FF002208211D
:10036C009E4800F0FFFE012210219C4800F0FAFE8E
:10037C0001222021994800F0F5FE012240219748E6
:10038C0000F0F0FE01228021944800F0EBFE22E107
:10039C0000220121914800F0E5FE002202218F4845
:1003AC0000F0E0FE012208218C4800F0DBFE002268
:1003BC0010218A4800F0D6FE00222021874800F048
:1003CC00D1FE01224021854800F0CCFE0022802184
:1003DC00824800F0C7FEFEE0002201217F4800F0B9
:1003EC00C1FE002202217D4800F0BCFE0022082143
:1003FC007A4800F0B7FE00221021784800F0B2FED7
:10040C0001222021754800F0ADFE012240217348E5
:10041C0000F0A8FE00228021704800F0A3FEDAE074
:10042C00012201216D4800F09DFE002202216B4843
:10043C0000F098FE00220821684800F093FE01228B
:10044C001021664800F08EFE01222021634800F046
:10045C0089FE00224021614800F084FE00228021A8
:10046C005E4800F07FFEB6E0002201215B4800F000
:10047C0079FE01220221594800F074FE0022082165
:10048C00564800F06FFE00221021544800F06AFE1E
:10049C0001222021514800F065FE002240214F48E6
:1004AC0000F060FE002280214C4800F05BFE92E0E0
:1004BC0000220121494800F055FE01220221474843
:1004CC0000F050FE00220821444800F04BFE0022B0
:1004DC001021424800F046FE002220213F4800F047
:1004EC0041FE002240213D4800F03CFE00228021CC
:1004FC003A4800F037FE6EE000220121374800F048
:10050C0031FE00220221354800F02CFE0022082189
:10051C00324800F027FE01221021304800F022FE64
:10052C00012220212D4800F01DFE012240212B48E4
:10053C0000F018FE01228021284800F013FE4AE04A
:10054C0000220121254800F00DFE00220221234843
:10055C0000F008FE00220821204800F003FE0022D3
:10056C0010211E4800F0FEFD002220211B4800F047
:10057C00F9FD00224021194800F0F4FD00228021F1
:10058C00164800F0EFFD26E000220121134800F090
:10059C00E9FD00220221114800F0E4FD00220821AF
:1005AC000E4800F0DFFD002210210C4800F0DAFDAF
:1005BC0001222021094800F0D5FD002240210748E6
:1005CC0000F0D0FD00228021044800F0CBFD02E0B9
:1005DC0000BF00E000BF0837BD4680BD000C0140E5
:1005EC0080B582B000AF7860C7F800C0012240210E
:1005FC00204800F0B7FD012280211E4800F0B2FD1A
:10060C0001224FF480711B4800F0ACFD01224FF425
:10061C000071184800F0A6FD7B68032B24D801A2BA
:10062C0052F823F0410600084D0600085906000850
:10063C0067060008002240210E4800F093FD14E0EC
:10064C00002280210B4800F08DFD0EE000224FF4BB
:10065C008071084800F086FD07E000224FF400711D
:10066C00044800F07FFD00E000BF00BF0837BD4626
:10067C0080BD00BF0008014090B583B000AF78602A
:10068C006446C7F800C07B68032B37D801A252F828
:10069C0023F000BFB1060008C7060008DD060008FD
:1006AC00F3060008184B1B68A4461846FFF7FEFD1E
:1006BC00A4460020FFF794FF21E0134B5B68A4468F
:1006CC001846FFF7F3FDA4460120FFF789FF16E05B
:1006DC000D4B9B68A4461846FFF7E8FDA446022084
:1006EC00FFF77EFF0BE0084BDB68A4461846FFF7CC
:1006FC00DDFDA4460320FFF773FF00E000BF00BF41
:10070C000C37BD4690BD00BF0000002080B590B0F6
:10071C0000AF07F1180328220021184601F00EFD46
:10072C003B1D00221A605A609A60DA601A6102233B
:10073C00BB610123BB621023FB6200237B6307F1C7
:10074C001803184600F040FD0346002B01D000F0C2
:10075C00CFF80F237B600023BB600023FB600023DA
:10076C003B6100237B613B1D0021184600F0AEFF6E
:10077C000346002B01D000F0BBF800BF4037BD464C
:10078C0080BD000080B586B000AF07F108030022E1
:10079C001A605A609A60DA603B4600221A605A600E
:1007AC001D4B4FF080421A601B4B41F63F725A6052
:1007BC00194B00229A60184B0922DA60164B002262
:1007CC001A61154B00229A61134801F0DBF80346BD
:1007DC00002B01D000F08CF84FF48053BB6007F174
:1007EC00080319460C4801F059FA0346002B01D0B6
:1007FC0000F07EF800233B6000237B603B461946EB
:10080C00054801F031FC0346002B01D000F070F8D4
:10081C0000BF1837BD4680BD3C00002080B588B0B5
:10082C0000AF07F1100300221A605A609A60DA6078
:10083C00274B9B69264A43F020039361244B9B6909
:10084C0003F02003FB60FB68214B9B69204A43F0BB
:10085C00040393611E4B9B6903F00403BB60BB68EC
:10086C001B4B9B691A4A43F008039361184B9B6915
:10087C0003F008037B607B6800224FF47471154809
:10088C0000F070FC0022FB21134800F06BFC4FF4CD
:10089C0074733B6101237B610023BB610223FB6109
:1008AC0007F1100319460B4800F0E0FAFB233B61FB
:1008BC0001237B610023BB610223FB6107F1100361
:1008CC001946054800F0D2FA00BF2037BD4680BD5E
:1008DC000010024000080140000C014080B582B0BD
:1008EC0000AF786000F058F800BF0837BD4680BDF7
:1008FC0080B400AF72B600BF00BFFDE780B483B018
:10090C0000AF7860074B1B687A6892FBF3F3064ADA
:10091C001360064B00221A6000BF0C37BD4680BC2A
:10092C00704700BF100000208800002094000020B9
:10093C0080B483B000AF7860074B1B687A6892FB79
:10094C00F3F3064A1360064B00221A6000BF0C3703
:10095C00BD4680BC704700BF100000208C000020FA
:10096C009800002080B483B000AF7860074B1B6800
:10097C007A6892FBF3F3064A1360064B00221A6066
:10098C0000BF0C37BD4680BC704700BF1000002074
:10099C00900000209C00002080B400AF194B1B6815
:1009AC00002B0BDD174B1B68013B164A1360154BD4
:1009BC001B68002B02D1144B01221A60134B1B68CD
:1009CC00002B0BDD114B1B68013B104A13600F4BC6
:1009DC001B68002B02D10E4B01221A600D4B1B68B9
:1009EC00002B0BDD0B4B1B68013B0A4A1360094BB8
:1009FC001B68002B02D1084B01221A6000BFBD46B8
:100A0C0080BC704788000020940000208C000020DF
:100A1C0098000020900000209C00002080B485B03D
:100A2C0000AF154B9B69144A43F001039361124BC1
:100A3C009B6903F00103BB60BB680F4BDB690E4A7B
:100A4C0043F08053D3610C4BDB6903F080537B6024
:100A5C007B680A4B5B68FB60FB6823F0E063FB6020
:100A6C00FB6843F00073FB60044AFB68536000BFF3
:100A7C001437BD4680BC7047001002400000014096
:100A8C0080B584B000AF78607B681B68B3F1804F91
:100A9C0013D10C4BDB690B4A43F00103D361094BB7
:100AAC00DB6903F00103FB60FB68002200211C20C2
:100ABC0000F0A5F91C2000F0BEF900BF1037BD46B0
:100ACC0080BD00BF0010024080B400AF00BFFDE746
:100ADC0080B400AF00BFFDE780B400AF00BFFDE7FE
:100AEC0080B400AF00BFFDE780B400AF00BFFDE7EE
:100AFC0080B400AF00BFBD4680BC704780B400AF6F
:100B0C0000BFBD4680BC704780B400AF00BFBD467F
:100B1C0080BC704780B500AF00F07EF800BF80BD90
:100B2C0080B500AF024800F0C9FF00BF80BD00BF18
:100B3C003C00002080B400AF00BFBD4680BC7047B5
:100B4C00FFF7F8FF0B480C490C4A002302E0D4587D
:100B5C00C4500433C4188C42F9D3094A094C0023FD
:100B6C0001E013600432A242FBD301F0EFFAFFF76D
:100B7C0025FB70470000002020000020E421000825
:100B8C0020000020A4000020FEE7000080B500AF8C
:100B9C00084B1B68074A43F010031360032000F056
:100BAC0023F90F2000F008F8FFF738FF0023184650
:100BBC0080BD00BF0020024080B582B000AF7860DD
:100BCC00124B1A68124B1B7819464FF47A73B3FB0D
:100BDC00F1F3B2FBF3F3184600F03BF90346002B9C
:100BEC0001D001230EE07B680F2B0AD80022796814
:100BFC004FF0FF3000F003F9064A7B6813600023C6
:100C0C0000E0012318460837BD4680BD14000020C3
:100C1C001C0000201800002080B400AF054B1B788E
:100C2C001A46054B1B681344034A136000BFBD46AC
:100C3C0080BC70471C000020A000002080B400AFD6
:100C4C00024B1B681846BD4680BC7047A0000020B4
:100C5C0080B485B000AF78607B6803F00703FB605D
:100C6C000C4BDB68BB60BA684FF6FF031340BB60EC
:100C7C00FB681A02BB68134343F0BF6343F40033B1
:100C8C00BB60044ABB68D36000BF1437BD4680BC50
:100C9C00704700BF00ED00E080B400AF044BDB6890
:100CAC001B0A03F007031846BD4680BC704700BF03
:100CBC0000ED00E080B483B000AF0346FB7197F900
:100CCC000730002B0BDBFB7903F01F02064997F969
:100CDC0007305B09012000FA02F241F8232000BF23
:100CEC000C37BD4680BC704700E100E080B483B097
:100CFC0000AF03463960FB7197F90730002B0ADB14
:100D0C003B68DAB20C4997F907301201D2B20B44A6
:100D1C0083F800230AE03B68DAB20849FB7903F058
:100D2C000F03043B1201D2B20B441A7600BF0C37EE
:100D3C00BD4680BC704700BF00E100E000ED00E064
:100D4C0080B489B000AFF860B9607A60FB6803F0DA
:100D5C000703FB61FB69C3F10703042B28BF0423C2
:100D6C00BB61FB690433062B02D9FB69033B00E032
:100D7C0000237B614FF0FF32BB6902FA03F3DA43C5
:100D8C00BB681A407B699A404FF0FF317B6901FACE
:100D9C0003F3D9437B680B40134318462437BD46F5
:100DAC0080BC704780B582B000AF78607B68013B37
:100DBC00B3F1807F01D301230FE00A4A7B68013B2A
:100DCC0053600F214FF0FF30FFF790FF054B0022CF
:100DDC009A60044B07221A60002318460837BD4658
:100DEC0080BD00BF10E000E080B582B000AF78603D
:100DFC007868FFF72DFF00BF0837BD4680BD80B572
:100E0C0086B000AF0346B9607A60FB7300237B6148
:100E1C00FFF742FF78617A68B9687869FFF790FF4D
:100E2C00024697F90F3011461846FFF75FFF00BFD7
:100E3C001837BD4680BD80B582B000AF0346FB714C
:100E4C0097F907301846FFF735FF00BF0837BD4646
:100E5C0080BD80B582B000AF78607868FFF7A2FFE4
:100E6C00034618460837BD4680BD000080B48BB0E1
:100E7C0000AF7860396000237B6200233B6261E144
:100E8C0001227B6A02FA03F3FB613B681B68FA6977
:100E9C001340BB61BA69FB699A4240F050813B68D0
:100EAC005B68974A93425ED0954A934275D8954AAF
:100EBC00934258D0934A93426FD8934A934252D05C
:100ECC00914A934269D8914A93424CD08F4A9342AB
:100EDC0063D88F4A934246D08D4A93425DD8122BE9
:100EEC002AD8122B59D801A252F823F0730F0008FC
:100EFC004D0F00085F0F0008A10F0008A70F000896
:100F0C00A70F0008A70F0008A70F0008A70F0008DD
:100F1C00A70F0008A70F0008A70F0008A70F0008CD
:100F2C00A70F0008A70F0008A70F0008A70F0008BD
:100F3C00550F0008690F0008764A934213D02CE035
:100F4C003B68DB683B6229E03B68DB6804333B624F
:100F5C0024E03B68DB6808333B621FE03B68DB68DE
:100F6C000C333B621AE03B689B68002B02D10423D4
:100F7C003B6213E03B689B68012B05D108233B6265
:100F8C007B68FA691A6109E008233B627B68FA699D
:100F9C005A6103E000233B6200E000BFBB69FF2BFA
:100FAC0001D87B6801E07B6804337B61BB69FF2B54
:100FBC0002D87B6A9B0002E07B6A083B9B003B618A
:100FCC007B691A680F213B6901FA03F3DB431A4072
:100FDC00396A3B6901FA03F31A437B691A603B686F
:100FEC005B6803F08053002B00F0A9804A4B9B698F
:100FFC00494A43F001039361474B9B6903F001039A
:10100C00BB60BB68454A7B6A9B08023352F82330AD
:10101C00FB607B6A03F003039B000F2202FA03F3CD
:10102C00DB43FA681340FB607B683D4A93420DD06A
:10103C007B683C4A934207D07B683B4A934201D180
:10104C00022304E0032302E0012300E000237A6A78
:10105C0002F0030292009340FA681343FB602F499D
:10106C007B6A9B080233FA6841F823203B685B6873
:10107C0003F48013002B06D02C4B9A682B49BB69C8
:10108C0013438B6006E0294B9A68BB69DB43274905
:10109C0013408B603B685B6803F40013002B06D095
:1010AC00224BDA682149BB691343CB6006E01F4B26
:1010BC00DA68BB69DB431D491340CB603B685B6856
:1010CC0003F40033002B06D0184B5A681749BB6940
:1010DC0013434B6006E0154B5A68BB69DB4313495D
:1010EC0013404B603B685B6803F48033002B1FD0CC
:1010FC000E4B1A680D49BB6913430B601FE000BF10
:10110C0000003210000031100000221000002110ED
:10111C0000001210000011100010024000000140ED
:10112C0000080140000C0140001001400004014087
:10113C000B4B1A68BB69DB43094913400B607B6A94
:10114C0001337B623B681A687B6A22FA03F3002B3B
:10115C007FF496AE00BF00BF2C37BD4680BC7047F5
:10116C000004014080B483B000AF78600B467B80F4
:10117C0013467B707B78002B03D07A887B681A61CE
:10118C0003E07B881A047B681A6100BF0C37BD46EC
:10119C0080BC704780B485B000AF78600B467B8014
:1011AC007B68DB68FB607A88FB6813401A04FB6879
:1011BC00D9437B880B401A437B681A6100BF1437F4
:1011CC00BD4680BC7047000080B586B000AF78602B
:1011DC007B68002B01D1012372E27B681B6803F052
:1011EC000103002B00F08780924B5B6803F00C032B
:1011FC00042B0CD08F4B5B6803F00C03082B12D123
:10120C008C4B5B6803F48033B3F5803F0BD1894B77
:10121C001B6803F40033002B6CD07B685B68002BDD
:10122C0068D101234CE27B685B68B3F5803F06D143
:10123C00804B1B687F4A43F4803313602EE07B683D
:10124C005B68002B0CD17B4B1B687A4A23F48033F0
:10125C001360784B1B68774A23F4802313601DE0DE
:10126C007B685B68B3F5A02F0CD1724B1B68714A7D
:10127C0043F4802313606F4B1B686E4A43F4803336
:10128C0013600BE06B4B1B686A4A23F480331360CA
:10129C00684B1B68674A23F4802313607B685B6888
:1012AC00002B13D0FFF7CAFC386108E0FFF7C6FC2F
:1012BC0002463B69D31A642B01D9032300E25D4B30
:1012CC001B6803F40033002BF0D014E0FFF7B6FCDE
:1012DC00386108E0FFF7B2FC02463B69D31A642B75
:1012EC0001D90323ECE1534B1B6803F40033002BAF
:1012FC00F0D100E000BF7B681B6803F00203002BF9
:10130C0063D04C4B5B6803F00C03002B0BD0494BA8
:10131C005B6803F00C03082B1CD1464B5B6803F491
:10132C008033002B16D1434B1B6803F00203002BB8
:10133C0005D07B681B69012B01D00123C0E13D4B1B
:10134C001B6823F0F8027B685B69DB0039491343A7
:10135C000B603AE07B681B69002B20D0364B0122D6
:10136C001A60FFF76BFC386108E0FFF767FC024678
:10137C003B69D31A022B01D90323A1E12D4B1B6826
:10138C0003F00203002BF0D02A4B1B6823F0F80269
:10139C007B685B69DB00274913430B6015E0264B28
:1013AC0000221A60FFF74AFC386108E0FFF746FCA0
:1013BC0002463B69D31A022B01D9032380E11D4B52
:1013CC001B6803F00203002BF0D17B681B6803F051
:1013DC000803002B3AD07B689B69002B19D0174B64
:1013EC0001221A60FFF72AFC386108E0FFF726FC9F
:1013FC0002463B69D31A022B01D9032360E10D4B42
:10140C005B6A03F00203002BF0D0012000F09CFA81
:10141C001CE00A4B00221A60FFF710FC38610FE049
:10142C00FFF70CFC02463B69D31A022B08D90323A5
:10143C0046E100BF001002400000424280044242DC
:10144C00924B5B6A03F00203002BE9D17B681B68AB
:10145C0003F00403002B00F0A6800023FB758B4BDC
:10146C00DB6903F08053002B0DD1884BDB69874A75
:10147C0043F08053D361854BDB6903F08053BB6031
:10148C00BB680123FB75824B1B6803F48073002B34
:10149C0018D17F4B1B687E4A43F480731360FFF7AF
:1014AC00CDFB386108E0FFF7C9FB02463B69D31A54
:1014BC00642B01D9032303E1754B1B6803F4807380
:1014CC00002BF0D07B68DB68012B06D16F4B1B6ABD
:1014DC006E4A43F0010313622DE07B68DB68002B3E
:1014EC000CD16A4B1B6A694A23F001031362674BE8
:1014FC001B6A664A23F0040313621CE07B68DB68FA
:10150C00052B0CD1614B1B6A604A43F00403136238
:10151C005E4B1B6A5D4A43F0010313620BE05B4BAD
:10152C001B6A5A4A23F001031362584B1B6A574A31
:10153C0023F0040313627B68DB68002B15D0FFF7E4
:10154C007DFB38610AE0FFF779FB02463B69D31A51
:10155C0041F28832934201D90323B1E04B4B1B6A11
:10156C0003F00203002BEED014E0FFF767FB3861A9
:10157C000AE0FFF763FB02463B69D31A41F288325B
:10158C00934201D903239BE0404B1B6A03F00203F7
:10159C00002BEED1FB7D012B05D13C4BDB693B4A8B
:1015AC0023F08053D3617B68DB69002B00F08780CC
:1015BC00364B5B6803F00C03082B61D07B68DB694E
:1015CC00022B46D1334B00221A60FFF737FB3861F0
:1015DC0008E0FFF733FB02463B69D31A022B01D913
:1015EC0003236DE0294B1B6803F00073002BF0D133
:1015FC007B681B6AB3F5803F08D1244B5B6823F4EE
:10160C0000327B689B68214913434B601F4B5B681E
:10161C0023F474127B68196A7B685B6A0B431B4961
:10162C0013434B601B4B01221A60FFF707FB386119
:10163C0008E0FFF703FB02463B69D31A022B01D9E2
:10164C0003233DE0114B1B6803F00073002BF0D01B
:10165C0035E0104B00221A60FFF7F0FA386108E011
:10166C00FFF7ECFA02463B69D31A022B01D903238C
:10167C0026E0064B1B6803F00073002BF0D11EE034
:10168C007B68DB69012B07D1012319E000100240B4
:10169C0000700040600042420B4B5B68FB60FB68D3
:1016AC0003F480327B681B6A9A4206D1FB6803F410
:1016BC0070127B685B6A9A4201D0012300E0002320
:1016CC0018461837BD4680BD0010024080B584B066
:1016DC0000AF786039607B68002B01D10123D0E02A
:1016EC006A4B1B6803F007033A689A4210D9674BA0
:1016FC001B6823F0070265493B6813430B60634B7F
:10170C001B6803F007033A689A4201D00123B8E042
:10171C007B681B6803F00203002B20D07B681B68DE
:10172C0003F00403002B05D0594B5B68584A43F473
:10173C00E06353607B681B6803F00803002B05D043
:10174C00534B5B68524A43F460535360504B5B6895
:10175C0023F0F0027B689B684D4913434B607B6818
:10176C001B6803F00103002B40D07B685B68012BE6
:10177C0007D1474B1B6803F40033002B15D1012311
:10178C007FE07B685B68022B07D1414B1B6803F041
:10179C000073002B09D1012373E03D4B1B6803F050
:1017AC000203002B01D101236BE0394B5B6823F062
:1017BC0003027B685B68364913434B60FFF73EFAC4
:1017CC00F8600AE0FFF73AFA0246FB68D31A41F2D6
:1017DC008832934201D9032353E02D4B5B6803F00D
:1017EC000C027B685B689B009A42EBD1274B1B6811
:1017FC0003F007033A689A4210D2244B1B6823F07B
:10180C00070222493B6813430B60204B1B6803F013
:10181C0007033A689A4201D0012332E07B681B68C7
:10182C0003F00403002B08D0194B5B6823F4E0622F
:10183C007B68DB68164913434B607B681B6803F0BD
:10184C000803002B09D0124B5B6823F460527B68B1
:10185C001B69DB000E4913434B6000F021F8024674
:10186C000B4B5B681B0903F00F030A49CB5C22FA94
:10187C0003F3094A1360094B1B681846FFF79CF9E0
:10188C00002318461037BD4680BD00BF0020024023
:10189C0000100240B821000814000020180000209D
:1018AC0080B487B000AF0023FB600023BB60002333
:1018BC007B6100237B6000233B611E4B5B68FB60FC
:1018CC00FB6803F00C03042B02D0082B03D027E099
:1018DC00194B3B6127E0FB689B0C03F00F03174A85
:1018EC00D35C7B60FB6803F48033002B10D0114B6E
:1018FC005B685B0C03F00103114AD35CBB607B6833
:10190C000D4A03FB02F2BB68B2FBF3F37B6104E00C
:10191C007B680C4A02FB03F37B617B693B6102E051
:10192C00054B3B6100BF3B6918461C37BD4680BC6C
:10193C00704700BF0010024000127A00C821000856
:10194C00D821000800093D0080B485B000AF786054
:10195C000A4B1B680A4AA2FB03235B0A7A6802FB48
:10196C0003F3FB6000BFFB685A1EFA60002BF9D131
:10197C0000BF00BF1437BD4680BC70471400002068
:10198C00D34D621080B582B000AF78607B68002BBD
:10199C0001D1012341E07B6893F83D30DBB2002B91
:1019AC0006D17B68002283F83C207868FFF768F842
:1019BC007B68022283F83D207B681A687B680433BD
:1019CC001946104600F056FA7B68012283F846202F
:1019DC007B68012283F83E207B68012283F83F203C
:1019EC007B68012283F840207B68012283F8412028
:1019FC007B68012283F842207B68012283F8432014
:101A0C007B68012283F844207B68012283F84520FF
:101A1C007B68012283F83D20002318460837BD4619
:101A2C0080BD000080B485B000AF78607B6893F80F
:101A3C003D30DBB2012B01D0012335E07B68022263
:101A4C0083F83D207B681B68DA687B681B6842F072
:101A5C000102DA607B681B68164A934209D07B68E6
:101A6C001B68B3F1804F04D07B681B68124A934209
:101A7C0011D17B681B689B6803F00703FB60FB6854
:101A8C00062B10D07B681B681A687B681B6842F0B9
:101A9C0001021A6007E07B681B681A687B681B6888
:101AAC0042F001021A60002318461437BD4680BC70
:101ABC00704700BF002C01400004004080B584B08A
:101ACC0000AF78607B681B68DB68FB607B681B6819
:101ADC001B69BB60BB6803F00203002B20D0FB68C2
:101AEC0003F00203002B1BD07B681B686FF0020213
:101AFC001A617B6801221A777B681B689B6903F06B
:101B0C000303002B03D0786800F098F905E078689F
:101B1C0000F08BF9786800F09AF97B6800221A774C
:101B2C00BB6803F00403002B20D0FB6803F0040314
:101B3C00002B1BD07B681B686FF004021A617B685A
:101B4C0002221A777B681B689B6903F44073002B95
:101B5C0003D0786800F072F905E0786800F065F958
:101B6C00786800F074F97B6800221A77BB6803F080
:101B7C000803002B20D0FB6803F00803002B1BD0BC
:101B8C007B681B686FF008021A617B6804221A7765
:101B9C007B681B68DB6903F00303002B03D07868B8
:101BAC0000F04CF905E0786800F03FF9786800F037
:101BBC004EF97B6800221A77BB6803F01003002BE8
:101BCC0020D0FB6803F01003002B1BD07B681B6834
:101BDC006FF010021A617B6808221A777B681B6809
:101BEC00DB6903F44073002B03D0786800F026F90E
:101BFC0005E0786800F019F9786800F028F97B683E
:101C0C0000221A77BB6803F00103002B0CD0FB6891
:101C1C0003F00103002B07D07B681B686FF00102F7
:101C2C001A617868FEF75AFEBB6803F08003002B3C
:101C3C000CD0FB6803F08003002B07D07B681B687B
:101C4C006FF080021A61786800F06FFABB6803F0DD
:101C5C004003002B0CD0FB6803F04003002B07D093
:101C6C007B681B686FF040021A61786800F0F8F826
:101C7C00BB6803F02003002B0CD0FB6803F020039F
:101C8C00002B07D07B681B686FF020021A61786804
:101C9C0000F042FA00BF1037BD4680BD80B584B05D
:101CAC0000AF786039600023FB737B6893F83C309D
:101CBC00012B01D10223B4E07B68012283F83C2084
:101CCC007B68022283F83D207B681B689B68BB60A5
:101CDC00BB6823F07703BB60BB6823F47F43BB6016
:101CEC007B681B68BA689A603B681B68B3F5005F39
:101CFC003ED0B3F5005F00F28780B3F5805F00F053
:101D0C008680B3F5805F7FD8702B1AD0702B7BD870
:101D1C00602B50D0602B77D8502B3CD0502B73D8E5
:101D2C00402B58D0402B6FD8302B64D0302B6BD835
:101D3C00202B60D0202B67D8002B5CD0102B5AD0D6
:101D4C0062E07B6818683B6899683B685A683B6836
:101D5C00DB6800F06AF97B681B689B68BB60BB683A
:101D6C0043F07703BB607B681B68BA689A604FE0EE
:101D7C007B6818683B6899683B685A683B68DB6805
:101D8C0000F053F97B681B689A687B681B6842F407
:101D9C0080429A603CE07B6818683B6859683B68F5
:101DAC00DB681A4600F0CAF87B681B68502118469D
:101DBC0000F021F92CE07B6818683B6859683B6897
:101DCC00DB681A4600F0E8F87B681B68602118464F
:101DDC0000F011F91CE07B6818683B6859683B6897
:101DEC00DB681A4600F0AAF87B681B68402118468D
:101DFC0000F001F90CE07B681A683B681B68194617
:101E0C00104600F0F8F803E00123FB7300E000BF7C
:101E1C007B68012283F83D207B68002283F83C20FC
:101E2C00FB7B18461037BD4680BD80B483B000AF35
:101E3C00786000BF0C37BD4680BC704780B483B05F
:101E4C0000AF786000BF0C37BD4680BC704780B4D3
:101E5C0083B000AF786000BF0C37BD4680BC7047C4
:101E6C0080B483B000AF786000BF0C37BD4680BC37
:101E7C007047000080B485B000AF786039607B6833
:101E8C001B68FB607B682B4A934207D07B68B3F1DD
:101E9C00804F03D07B68284A934208D1FB6823F01B
:101EAC007003FB603B685B68FA681343FB607B68FC
:101EBC00204A934207D07B68B3F1804F03D07B68F4
:101ECC001D4A934208D1FB6823F44073FB603B68C6
:101EDC00DB68FA681343FB60FB6823F080023B6805
:101EEC005B691343FB607B68FA681A603B689A680D
:101EFC007B68DA623B681A687B689A627B680D4A79
:101F0C00934203D13B681A697B681A637B68012290
:101F1C005A617B681B6903F00103002B05D07B68B9
:101F2C001B6923F001027B681A6100BF1437BD46A0
:101F3C0080BC7047002C01400004004080B487B086
:101F4C0000AFF860B9607A60FB681B6A7B61FB6864
:101F5C001B6A23F00102FB681A62FB689B693B61F8
:101F6C003B6923F0F0033B617B681B013A69134327
:101F7C003B617B6923F00A037B617A69BB6813437D
:101F8C007B61FB683A699A61FB687A691A6200BFE7
:101F9C001C37BD4680BC704780B487B000AFF8607A
:101FAC00B9607A60FB681B6A7B61FB681B6A23F073
:101FBC001002FB681A62FB689B693B613B6923F466
:101FCC0070433B617B681B033A6913433B617B693C
:101FDC0023F0A0037B61BB681B017A6913437B610F
:101FEC00FB683A699A61FB687A691A6200BF1C3710
:101FFC00BD4680BC704780B485B000AF7860396056
:10200C007B689B68FB60FB6823F07003FB603A689D
:10201C00FB68134343F00703FB607B68FA689A6024
:10202C0000BF1437BD4680BC704780B487B000AF8A
:10203C00F860B9607A603B60FB689B687B617B6988
:10204C0023F47F437B613B681A027B681A43BB68AD
:10205C0013437A6913437B61FB687A699A6000BF0A
:10206C001C37BD4680BC704780B485B000AF78602B
:10207C0039607B6893F83C30012B01D1022341E09D
:10208C007B68012283F83C207B68022283F83D2088
:10209C007B681B685B68FB607B681B689B68BB602C
:1020AC00FB6823F07003FB603B681B68FA68134302
:1020BC00FB607B681B68FA685A607B681B68144A73
:1020CC00934209D07B681B68B3F1804F04D07B68C6
:1020DC001B68104A93420CD1BB6823F08003BB6091
:1020EC003B685B68BA681343BB607B681B68BA6863
:1020FC009A607B68012283F83D207B68002283F87C
:10210C003C20002318461437BD4680BC704700BFE6
:10211C00002C01400004004080B483B000AF786014
:10212C0000BF0C37BD4680BC704780B483B000AF95
:10213C00786000BF0C37BD4680BC70470346024434
:10214C00934200D1704703F8011BF9E770B50026E4
:10215C000C4D0D4C641BA410A64209D100F01AF8CA
:10216C0000260A4D0A4C641BA410A64205D170BD72
:10217C0055F8043B98470136EEE755F8043B984771
:10218C000136F2E7DC210008DC210008DC21000824
:10219C00E0210008F8B500BFF8BC08BC9E467047AB
:0C21AC00F8B500BFF8BC08BC9E467047A8
:1021B80000000000000000000102030406070809EF
:1021C80002030405060708090A0B0C0D0E0F101070
:0421D8000102000000
:0421DC0031010008C5
:0421E0000D010008E5
:1021E40001000000020000000300000004000000E1
:1021F4000A00000000127A00100000000100000034
:0400000508000B4D97
:00000001FF
